:020000040800F2
:10000000584D00200D030008F52A0008D5280008E7
:10001000112A0008D91D0008BF4000080000000098
:100020000000000000000000000000007502000851
:10003000E123000800000000B9020008C1320008F6
:1000400027030008270300082703000827030008E8
:10005000270300082703000827030008E5230008FA
:1000600027030008270300082703000827030008C8
:1000700027030008270300082703000827030008B8
:1000800027030008270300082703000827030008A8
:100090002703000827030008270300082703000898
:1000A000270300082136000827030008270300085B
:1000B0002703000827030008270300082703000878
:1000C0002703000827030008270300082703000868
:1000D00027030008493B000827030008793C000873
:1000E00027030008270300082703000800F002F890
:1000F00000F0B0F80AA090E8000C82448344AAF112
:100100000107DA4501D100F0A5F8AFF2090EBAE80F
:100110000F0013F0010F18BFFB1A43F0010318473B
:100120005CA500007CA500000A444FF0000C10F80C
:10013000013B13F0070408BF10F8014B1D1108BF65
:1001400010F8015B641E05D010F8016B641E01F805
:10015000016BF9D113F0080F1EBF10F8014BAD1C55
:100160000C1B09D16D1E58BF01F801CBFAD505E073
:1001700014F8016B01F8016B6D1EF9D59142D6D3CD
:10018000704700000023002400250026103A28BFF5
:1001900078C1FBD8520728BF30C148BF0B607047F9
:1001A0006E2900F06883702900F0E186662909F065
:1001B000D685652909F0D385672909F0D08561299D
:1001C00009F0CF8503681B0A28BF41F08001692927
:1001D00000F00681642900F00381752900F0008198
:1001E0006F2900F06E86782900F0AD86E92900F0CD
:1001F0000986E42900F00686F52900F00386EF2938
:1002000000F06B86F82900F0AC860368DB0928BF94
:1002100041F08001632900F07885732900F07D8525
:10022000E32901F0F380F32901F0F8800020704702
:100230001FB500F0D9FE04000020002108F088FF5F
:10024000401C60600020002108F06CFFE0601FBDD2
:1002500010B510BD01F080F91146FFF7E9FF04F079
:10026000A7FB01F0A7F903B4FFF7F2FF03BC03F00B
:100270009AFF0000224B19680868B0E8F00F80F37D
:100280000988BFF36F8F4FF0000080F311884EF0A4
:100290000D0E70470000000006480068006880F3FB
:1002A000088862B661B6BFF34F8FBFF36F8F00DF70
:1002B00000BF00BF08ED00E0EFF30980BFF36F8FD0
:1002C0000F4B1A6820E9F00F106008B54FF050008E
:1002D00080F31188BFF34F8FBFF36F8F06F0BEFD21
:1002E0004FF0000080F31188BDE8084019680868E5
:1002F000B0E8F00F80F30988BFF36F8F704700BF3D
:10030000C8000020EFF305807047000009488047CF
:1003100009480047FEE7FEE7FEE7FEE7FEE7FEE7E7
:10032000FEE7FEE7FEE7FEE704480549054A064BFF
:1003300070470000D1320008ED0000085847002047
:10034000584D0020584900205849002070470000AF
:100350001CB50C46064B7B4469460090204600F0D5
:10036000B2FC04460020694600F0C0FC20461CBDDB
:10037000930900000FB4044910B503AA029800F0D5
:10038000D1FC10BC5DF814FB9800002070B50C4641
:100390000546012A05D02878800600D5EA690023A1
:1003A00002E0012305E05B1C934202D2E05C0028DE
:1003B000F9D1A869E618C01AA861286A1844286209
:1003C000284600F0C6F904E0D5E9012114F8010B34
:1003D0009047B442F8D3284600F0D1F970BD000030
:1003E0002DE9F0410646002410687529314616A50E
:1003F00010D000F0D5F9002802DA404213A507E03A
:1004000031688A0701D512A502E0490704D511A574
:10041000012401E000F0CDF900210A2206F12407B1
:1004200009E0B0FBF2FCB0FBF2F302FB1C00303041
:1004300078541846491C0028F3D123462A463046F2
:10044000BDE8F04100F0BEB9000000002D00000042
:100450002B000000200000002DE9F05F89460446D3
:100460004FF0000ADFF874B1FB44C0F820A020462A
:10047000E1688847002874D0252806D0D4E90121F6
:100480009047206A401C2062F1E700265F46204624
:10049000E16888472028054607DB312D05D2781909
:1004A00010F8200C08B10643F1E7B00701D526F09B
:1004B0000406C4F81CA00027C4F818A02A2D09D0EF
:1004C000284603F069FE38B304EB8708303DC8F8CE
:1004D000185019E059F8041B204604EB870291617B
:1004E000E1688847012F054618D1E069002820DA25
:1004F00026F020061DE0D8F8180000EB800005EB80
:1005000040003038C8F818002046E16888470546A2
:1005100003F042FE0028EED1012F0AD02E2D08D183
:100520002046E16888477F1C0546022F46F02006DA
:10053000C4DBA069002803DA404246F00106A0614E
:10054000F00701D026F010066C2D0BD0682D09D0D5
:100550004C2D39D06A2D35D0742D35D07A2D33D02D
:1005600016E038E0E1682F4620468847B842054645
:1005700009D16C2F26D04FF48060E16806432046F5
:100580008847054604E06C2F1AD04FF4807006436C
:100590000DB3A5F14100192802D8203546F40066B4
:1005A0004A462946204626604E46FFF7F9FD80B1AF
:1005B00001280BD0F61D26F0070000F1080956E7C8
:1005C0004020E4E78020D8E70020D6E706F10409C0
:1005D0004DE7284652E7206ABDE8F09F12A10000CF
:1005E00010B5431C02E010F8011B71B18107FAD16C
:1005F0004FF0013202C88C1A8C4314EAC211F9D0B0
:10060000C01A0A0603D0C01E10BDC01A10BD0A04CD
:1006100001D0801E10BD0902FCD0401E10BD032A6F
:1006200040F2308010F0030C00F0158011F8013B0F
:10063000BCF1020F624498BF11F801CB00F8013BF6
:1006400038BF11F8013BA2F1040298BF00F801CBBA
:1006500038BF00F8013B11F0030300F09384083A1F
:10066000C0F0088051F8043B083A51F804CBA0E8E8
:100670000810F5E7121D5CBF51F8043B40F8043B3D
:10068000AFF30080D20724BF11F8013B11F801CB72
:1006900048BF11F8012B24BF00F8013B00F801CB43
:1006A00048BF00F8012B704702F0FF0343EA032222
:1006B00042EA024200F002B84FF000020429C0F002
:1006C000128010F0030C00F01B80CCF1040CBCF184
:1006D000020F18BF00F8012BA8BF20F8022BA1EBD6
:1006E0000C0100F00DB85FEAC17C24BF00F8012BBB
:1006F00000F8012B48BF00F8012B70474FF00002B3
:1007000000B5134694469646203922BFA0E80C5007
:10071000A0E80C50B1F12001BFF4F7AF090728BFE2
:10072000A0E80C5048BF0CC05DF804EB890028BF5E
:1007300040F8042B08BF704748BF20F8022B11F087
:10074000804F18BF00F8012B704770477047704703
:10075000704770B5044685690068C10601D530262A
:1007600000E02026C00707D070BDD4E90121304643
:100770009047206A401C20626D1EF6D570BD70B592
:10078000044685690078C00707D170BDD4E901210E
:1007900020209047206A401C20626D1EF6D570BD57
:1007A00009684A0501D540B27047C905FCD500B2B9
:1007B000704709684A0501D5C0B27047C905FCD524
:1007C00080B270472DE9F0470D469946924604469F
:1007D00000F124080168880604D5E06921F01001C1
:1007E000216000E00120A84201DD471B00E0002756
:1007F000A1697A1902EB0900081AA0612078C006E5
:1008000002D42046FFF7A5FF002608E0D4E9012125
:100810001AF806009047206A401C761C20624E455C
:10082000F4DB2078C0060AD52046FFF792FF06E0E9
:10083000D4E9012130209047206A401C2062381EF4
:10084000A7F10107F4DC07E0D4E9012118F805005D
:100850009047206A401C2062281EA5F10105F3DCA8
:100860002046FFF78CFF2078000602D50220BDE865
:10087000F0870120FBE711680268006A530501D583
:1008800008700AE0D30501D5088006E0130603D5F9
:10089000C217C1E9000200E00860012070477047FC
:1008A0002DE9FF4F0C461E464FF0FF378BB0D2E9C3
:1008B0000001DDF860800A908A46C1F30A5505B947
:1008C0003D46002108464FF00000BAF1000F00F449
:1008D000400005DA00EB80004FF4400101EA5000CF
:1008E0004FEA9059B9F1010F00DDB9460A9850EA74
:1008F0004A000ED044F61050A5F2FF3545432F14A0
:10090000B8F1000F1ED07542291E1EDDC9F100028C
:100910001CE0B8F1010F4FF0000001D0302103E0DE
:10092000F24305E02154401CB042FBDB304600227C
:10093000002121540B99C1F80880C1E900200FB0B3
:10094000BDE8F08FBD1B6D1CDEE74A4600DA694248
:1009500006A800F067FD06AB93E8070003AB83E849
:10096000070050460A9900F06FFE8DE80700A0F5D9
:1009700000501F3800900398002D0ADD42F21F013D
:100980004A460844002303A90390684601F0D8F8BA
:1009900009E0A0F500504A461F38002303A9039040
:1009A000684601F0E2F88DE807000004000C03D06F
:1009B0004FF0FF30410800E01046B8F1000F03D0BF
:1009C0000022009215461EE0751E05D400F010FBB3
:1009D000303262556D1EF9D5B3460122084302D06C
:1009E00000227F1C04E02078302801D100227F1EE5
:1009F000002A099784D01DE0112D07DA00F0F8FADB
:100A0000303262556D1C50EA0102F5D1084302D024
:100A10000098C8B10EE00021681E05E0235C625C0E
:100A200063542254401E491C8142F7DBAB46A81B8D
:100A3000401E0990002004F80B000B98099AC0F89A
:100A40000880C0E9002B7AE711264FF0000857E72D
:100A50002DE9F04F88460446D21D22F0070191B0DF
:100A6000D1E90001CDE90A0103F082FB02460B98AF
:100A7000C00F01D02D2007E02068810701D52B2071
:100A800002E0202101EAC000032A099001D0072AD0
:100A900005DB03464146204600F06EFC0BE1207862
:100AA000800601D5E06900E00620B8F1650F8146B7
:100AB00006D0B8F1660F18D0B8F1670F70D131E0E9
:100AC0000020B9F1110F009001DB112301E009F1C1
:100AD00001030AAA01A90CA8FFF7E2FEDDE90C70E8
:100AE000002609F10105834647E001204B460090AE
:100AF0004FF000470AAA01A90CA8FFF7D1FEDDE9D3
:100B00000DB00C995D46002610B909F101000D18D1
:100B1000B9EB050003D4C0F1FF3609F10105A5EBDF
:100B200009002BE0B9F1010F01DA4FF001090020B3
:100B3000B9F1110F0090484601DD112300E0034692
:100B40000AAA01A90CA8FFF7ABFEDDE90C704D461F
:100B500000268346207800070AD4AB4500DA5D46BC
:100B600001A8012D04DD411911F8011C302907D01D
:100B70004F4502DA17F1040F04DA012082460FE034
:100B80006D1EEEE7002F02DCED1B3E4403E0781CF7
:100B9000A84200DD7D1CB81B00F1010A4FF00047A0
:100BA0002078000703D4AA4501DB4FF0FF3A00216B
:100BB000B7F1004F0DF143088DF8431024D0022007
:100BC0002B23002F01DA7F422D230A21021EA0F1E0
:100BD000010000DC5FB197FBF1FC97FBF1F201FB38
:100BE0001C7C17460CF1300C08F801CDEEE7A8F19B
:100BF000010003702188090501D5452100E0652128
:100C0000A0F1010800F8011C09980FA9A1EB080741
:100C1000FF1D00B10120411901EBEA70A1693844C0
:100C2000081A401EA0612078C00602D42046FFF7B3
:100C300090FD099828B1D4E901219047206A401C11
:100C400020622078C00622D52046FFF782FD1EE0F4
:100C5000002E04DBB34502DD01A8805D00E03020FA
:100C6000D4E901219047206A401C2062761CAAF139
:100C700001005FEA000A0AD100F0B6F9C068016815
:100C8000405CD4E901219047206A401C2062281E64
:100C9000A5F10105DCDC07E0D4E9012118F8010B1E
:100CA0009047206A401C2062381EA7F10107F3DC40
:100CB0002046FFF764FD032011B041E601694A1C9C
:100CC00002610878704700B58FB0CDE9013100218D
:100CD000059105497944CDE9031011466846FFF7AF
:100CE000BBFB0FB000BD0000E5FFFFFF0A6802F884
:100CF000010B0A60704710B5436913B1AFF3008070
:100D000001E0FFF743FB012010BD127800F1240140
:100D10000A7000224A700122EDE711684FF0FF329D
:100D2000E9E70000074B70B50D467B44FFF7CBFFAA
:100D30000446284600F0E8FB10B14FF0FF3070BDCC
:100D4000204670BD733700002DE9FF5F15468A46C7
:100D50000446DFF8AC80F8440027D8E900103E468E
:100D6000CDE9001010E03AF816106A4602A800F02B
:100D7000CFFB411C07D02178890603D5E2693918D9
:100D800091420DD80744761C2078800602D5E06990
:100D9000B84205DDAE42E6DB3AF816000028E2D1A3
:100DA000A069C01BA0612046FFF7D3FCD8E9001062
:100DB000CDE90010002017E03AF818106A4602A8A2
:100DC00000F0A6FBB0F1FF3F81460BD000250DF1EE
:100DD000080B05E0D4E901211BF8050090476D1CC4
:100DE0004D45F7D308F10100B0428046E4DB206AAC
:100DF000384420622046FFF7C2FCBDE8FF9F000098
:100E0000369800002DE9F0418046D21D22F00702FD
:100E10000025D2E90002F52915A614D0011E72F1B1
:100E2000000106DA0023D0EB030063EB020211A6F7
:100E300008E0D8F800108B0701D50FA602E049079B
:100E400001D50EA601251146002408F1240704E06F
:100E500000F0CEF830323A55641C50EA0102F7D166
:100E60002B46324621464046BDE8F041FFF7AABC7A
:100E7000000000002D0000002B00000020000000FA
:100E800030B4002100F1240408E002F00705D20884
:100E9000303542EA4372DB086554491C52EA0305C7
:100EA000F3D10468002310A2250707D5A40600D4B7
:100EB00021B1C46901230DA2641EC46130BCFFF7D7
:100EC00081BC10B5044621461068FFF772FC02464B
:100ED0002046BDE810400023D2E7D21D22F00701D2
:100EE000D1E90023CCE70000000000003000000042
:100EF000F0B40D460188090502D5214C7C4402E07E
:100F00001F4C7C440E34002100F1240608E002F05E
:100F10000F071209E75D42EA03721B097754491C67
:100F200052EA0307F3D102780023120704D5702D8B
:100F300006D009B1022311342246F0BCFFF742BCAF
:100F400001231034F8E770B504460D4621461068B9
:100F5000FFF72FFC024629462046BDE870400023DB
:100F6000C6E7D21D22F00703D3E90023C0E70368D8
:100F7000126843F0200303600823C3610023B7E72E
:100F80009896000010B5203AC0F00B80B1E81850D8
:100F9000203AA0E81850B1E81850A0E81850BFF463
:100FA000F5AF5FEA027C24BFB1E81850A0E8185002
:100FB00044BF18C918C0BDE810405FEA827C24BF56
:100FC00051F8043B40F8043B08BF7047D20728BFE4
:100FD00031F8023B48BF11F8012B28BF20F8023B33
:100FE00048BF00F8012B70470048704714470020A5
:100FF00030B5B0F10A024FEA900E71F100034EEAEB
:10100000817EB0EB0E0061EB91014FEA101E4EEABB
:10101000017E10EB0E0041EB11114FEA102E4EEA4B
:10102000016E10EB0E0041EB11214FEA104E4EEA1B
:10103000014E10EB0E0041EB1141401841F100014F
:101040004FEAD00040EA41704FEAD10110EB800531
:101050004FEA810444EA907444EB01046D1944EBB7
:101060000404521BA3414FF0000348BF0A3200D5CD
:1010700030BD401C41F1000130BD00002DE9F04FB2
:1010800004460D46D21D22F0070089B0D0E9009732
:101090004846394603F06CF80246F80F01D02D237C
:1010A00007E02068810701D52B2302E0202101EA17
:1010B000C0038DF820300BB1012000E00020032A8E
:1010C000824601D0072A04DB2946204600F054F965
:1010D0003FE12078800601D40D2500E0E569C7F3E3
:1010E0000A560D2D49DA00214FEA175B08464FF0EA
:1010F0000000002F00F4400007DA00EB80004FF4FE
:10110000400100EBD07001EA60008115012901DD8A
:101110004FF0FF3100224FEA850CBCF1180F06D3C7
:101120001346ACF118004FF08052C24003E04FF478
:10113000801323FA0CF30CF10C0CBCF1200F04D338
:10114000ACF1200C09FA0CF001E007FA0CF00029D0
:101150004FF0004801DD18B90FE00ED140450CD327
:1011600019EB02095F4121B9404502D19F4329EAA9
:101170000209BBEB175F00D0761C2088000502D562
:101180007B48784402E07A487844193808AA30232A
:1011900002F80A30037C0AF10101002E0AF1020A6A
:1011A00053546A4602DC4FF0300101E04FF0310148
:1011B0004FF001088DF8001002D0A6F2FF3603E0D0
:1011C00059EA470100D06B4E002D02DC2178090757
:1011D00004D54FF002082E218DF80110C4460021DD
:1011E0000BE0C7F303433F01C35C491C6D1E02F8CB
:1011F0000830052908F1010801DA002DF1DC002191
:101200000CE000EB1973491C1B786D1E082902F8CD
:1012100008304FEA091908F1010801DA002DF0DC65
:1012200021688B0602D516E0A8F10108E04505DD2E
:1012300002EB080313F8013C302BF5D0B8F1000F96
:1012400009DD02EB080313F8013C2E2B03D109073B
:1012500001D4A8F10108002D05DD3E2102F8081097
:101260006D1E08F10108407C002E02F8080008F10C
:10127000010804DA2D20764202F8080002E02B2053
:1012800002F808000A214FF47A70864208F101083A
:101290000BDB96FBF0F3303302F8083096FBF0F3EB
:1012A00008F1010800FB136601E0642E0CDB6420EA
:1012B00096FBF0F3303302F8083096FBF0F308F1B8
:1012C000010800FB136601E00A2E06DB96FBF1F035
:1012D000303002F8080008F1010896FBF1F001FB3C
:1012E0001060303002F80800A16908F1010808EB2D
:1012F000050202EB0A00081AA0612078C00602D499
:101300002046FFF726FA216A08AE01EB0A002062A8
:1013100004E0D4E9012116F8010B9047BAF1010A63
:10132000F7D22078C00602D52046FFF712FA6E46A3
:1013300009E016F8010B3E280FD0D4E901219047AF
:10134000206A401C2062B8F10108F2D22046FFF763
:1013500016FA09B00320BDE8F08F206A2844206205
:1013600003E0D4E90121302090476D1EEBD3F8E76C
:101370004D94000002FCFFFF2DE9F0411F4604469A
:1013800003260168072A01F4006004DB08B116A5F2
:1013900005E016A503E008B115A500E015A521F0AC
:1013A00010002060A069C01EA0610FB1401EA061A6
:1013B0002046FFF7CEF94FB1D4E9012138469047D6
:1013C000206A401C2062C01C206206E0206AFAE706
:1013D000D4E9012115F8010B9047761EF8D220467A
:1013E000FFF7CDF9BDE8F0814E414E006E616E0011
:1013F000494E4600696E660010B5436913B1AFF3FC
:10140000008001E0FFF7A0FC012010BD128800F170
:10141000240182840022C2840122EDE711684FF08A
:10142000FF32E9E72DE9F047814616468AB0354894
:1014300078440DC88DE80D0032487844801C03AC18
:101440000DC884E80D0041F69B300844372190FB1D
:10145000F1F290FBF1F5A5F1800501FB12041B3CB4
:1014600002D56442012000E00020DFF898A0804609
:101470000027FA44AAF1BE0A0EE0E0070AD032467D
:10148000684607EB470101230AEB810100F06DFB81
:101490008DE8070064107F1C002CEED1194F7F44AB
:1014A000AE3F19E0E80715D007EB04100DF1180A5C
:1014B00090E80E008AE80E00C068F04201D1981949
:1014C00008903246012306A903A800F04EFB03ABA7
:1014D00083E807006D10641C002DE3D14FF0010379
:1014E00032466946B8F1000F03A802D000F028FB8D
:1014F00001E000F03AFBC9E90001C9F808200AB090
:10150000BDE8F08730920000007B00F0800070475B
:1015100070B516460C46054600F044F8036893F88B
:101520000101012806D0FF2C0FD8185D68B10120F9
:101530002C7070BDD3F807013246214603F2071321
:1015400003442846BDE8704018474FF0FF3070BD97
:1015500000487047F44600207546FFF7F9FFAE4695
:1015600005006946534620F00700854618B020B5AF
:10157000FEF7DAFEBDE820404FF000064FF000070E
:101580004FF000084FF0000B21F00701AC46ACE82B
:10159000C009ACE8C009ACE8C009ACE8C0098D4698
:1015A0007047000010B5FFF71FFD001D10BD00BF04
:1015B000A17B000010B50446AFF300802046BDE8D3
:1015C0001040FEF750BE00004FF0013C50F8042BD5
:1015D00051F8043B9A4221D1A2EB0C03934313EA46
:1015E000CC1317D150F8042B51F8043B9A4215D173
:1015F000A2EB0C03934313EACC130BD150F8042B4A
:1016000051F8043B9A4209D1A2EB0C03934313EA2D
:10161000CC13DBD04FF00000704700BFD01A01BAE6
:10162000B1FA81F101F0180122FA01F0CB40C1F1C9
:101630002001DBB2C0B2C01A2CFA01F3D11A9143D7
:1016400011EAC311E6D170475FEA400C08BF91F080
:10165000000F4FEA8C234FEAC12243EA51514FEA6F
:101660001C5018BF00F5F0404FEA300018BF41F0A1
:1016700000415FEA6C5C00F02980BCF1FF3F08BFCD
:1016800040F080407047130C06BF12044FF0100C5E
:101690004FF0000C130E04BF12020CF1080C130FD4
:1016A00004BF12010CF1040C930F04BF92000CF163
:1016B000020CD30F04BF52000CF1010C11464FF085
:1016C0000002A0F11F00A0EB0C00704711F0004FCA
:1016D00008BF704731F000413FF4D5AF0B0C06BF97
:1016E00009044FF0100C4FF0000C0B0E04BF090260
:1016F0000CF1080C0B0F04BF09010CF1040C8B0F4B
:1017000004BF89000CF1020CCB0F04BF49000CF19F
:10171000010CCCF12003A0EB0C0022FA03F302FA37
:101720000CF241EA030100F10100704720F07F4C08
:1017300080EA030023F07F47ACEB070303F57C53FB
:1017400000F0004003F1FF032DE980494FEA154BFB
:1017500009B44FEA144325EA0B4E24EA03480FF27A
:10176000042606EB132749083E785FEA320203FBA2
:101770000667C7F5000707FB06F64FEA54374FEA3E
:10178000D64606F1020607FB066CCCF1005C4FEA78
:101790001C472CEA074C07FB06F40CFB06F504EB90
:1017A00015464FEA961634BF00204FF000404FEA2E
:1017B000D13706FB07FC4FEA1C4C0CFB0BF7D21B86
:1017C00003FB0CF761EB07010CFB0EF7B0EB0740D6
:1017D00072EB17420CFB08F734BFA2EB0742B2EBE7
:1017E000074261EB17414FEA0C444FEA910706FBB1
:1017F00007FC4FEA1C4C0CFB0BF7B0EBC74072EB3D
:10180000573203FB0CF734BFA2EBC742B2EBC7421F
:1018100061EB57310CFB0EF7B0EBC70072EB577260
:101820000CFB08F734BFA2EBC702B2EBC70261EBB7
:101830005771039F4FEA816141EA921104EBCC0496
:101840004FEAD1374FEA826206FB07FC42EA901268
:101850004FEA80604FEA1C4C0CFB0BF7D21B03FBDA
:101860000CF761EB07010CFB0EF7B0EB074072EBD6
:1018700017420CFB08F734BFA2EB0742B2EB07425A
:1018800061EB17414FEA8C554FEA910704EB9C241A
:1018900006FB07FC4FEA1C4C0CFB0BF7B0EBC740F8
:1018A00072EB573203FB0CF734BFA2EBC742B2EB2B
:1018B000C74261EB57310CFB0EF7B0EBC70072EB80
:1018C00057720CFB08F734BFA2EBC702B2EBC7029A
:1018D00061EB577115EB4C254FEA816141EA92119A
:1018E0004FEA82624FEAD13742EA901206FB07FCC8
:1018F00044F100044FEA80604FEA1C4C0CFB0BF7EC
:10190000D21B03FB0CF761EB07010CFB0EF7B0EBEE
:10191000074072EB17420CFB08F734BFA2EB0742FB
:10192000B2EB074261EB174115EB1C154FEA813111
:1019300041EA92414FEA823242EA90424FEA8030D5
:101940004FEA0C7644F1000448EA03434EEA0B48A0
:101950004FF0000EB2EB080C71EB030724BF624698
:1019600039464EEB0E0E4FF0000B00185241494124
:101970004BEB0B0BB2EB080C71EB03077BF1000B8D
:1019800024BF624639464EEB0E0E4FF0000B001896
:10199000524149414BEB0B0BB2EB080C71EB0307C7
:1019A0007BF1000B24BF624639464EEB0E0E51EA26
:1019B000020718BF46F0010616EB0E7655F100023D
:1019C00054F1000103D5BDE88901BDE80088BDE8F8
:1019D0008901BDE80048B619524141EB0101A3F16C
:1019E0000103704780807F7E7D7C7B7A7978777673
:1019F00076757473727171706F6E6E6D6C6C6B6AEC
:101A00006A69686867666665646463636261616089
:101A1000605F5F5E5E5D5D5C5C5B5B5A5A59595806
:101A20005857575656555555545453535252525170
:101A3000515050504F4F4F4E4E4D4D4D4C4C4C4BC6
:101A40004B4B4A4A4A49494948484847474747460D
:101A50004646454545444444444343434342424249
:101A600042414141002B9C4630D477002BD01CB51D
:101A70004FEA370703B44FF010004FF01001BAF1EE
:101A8000000F06D0BCF1000FDCBF40F0080040F0B2
:101A900008014FF000000FBCBDE810400BF1010B36
:101AA000BBF1010F08BF5FEA170722BF12F1010265
:101AB00011F101014FF0004143F1000300F000403B
:101AC00043EA00007047F9D35708D0E746EA0646D4
:101AD00013F1400F4FEA16461FDD13F1200FDFBF51
:101AE00016430A46002120335B42BED0C3F12007D3
:101AF00046EA064602FA07F74FEA164646EA07069E
:101B0000C3F1200722FA03F201FA07F721FA03F1E1
:101B10004FF0000342EA0702A7E746EA020646EA58
:101B200006464FEA164646EA0106BCBF46EA0646A6
:101B3000360C4FF000034FF000024FF0000194E725
:101B40002DE9804C9A46934670B491E8380007C856
:101B500031EA400C48BF34EA430C03D5FFF7E6FDF9
:101B6000FFF780FFF0BCBDE8008C2DE9804C9A4661
:101B7000934670B491E8380007C810F0804F08BF52
:101B800013F0804F03D100F005F8FFF76BFFF0BCB6
:101B9000BDE8008C20F07F4780EA030023F07F4CF3
:101BA00007EB0C03A3F57C5300F00040A3F1FE0308
:101BB00092F0000F00F0B38095F0000F00F07780F6
:101BC0002DE901494FEA11404FEA144621EA004845
:101BD00000FB06FC24EA064708FB06F607FB08F8AC
:101BE00000FB07F718EB06484CEB164C4FEA124B7C
:101BF00018EB07484FEA15464CEB174022EA0B4E0C
:101C00000BFB06FC25EA06470EFB06F607FB0EFE5D
:101C10000BFB07F71EEB064E4CEB164C4FF0000685
:101C20001EEB074E4CEB174B18EB0B0840F1000076
:101C300018EB0E0B58EB000840F100008F1A4FF024
:101C400000013CBFC943661B14BFB5EB040C002167
:101C50003CBFC943F61B4FEA17444EEA8E0E27EAF3
:101C600004454FEA1C4704FB07622CEA074C05FBBE
:101C700007F70CFB05F604FB0CFC16EB074642EBE2
:101C8000174216EB0C4642EB1C421BEB060658EBC8
:101C90000202414146EA9E0601D5BDE80189B61916
:101CA000524141EB0101A3F10103BDE801894FEA73
:101CB00014454FEA114724EA054621EA074C05FB83
:101CC00007F406FB07F70CFB06F105FB0CFC11EB18
:101CD000074144EB17444FEA124711EB0C4144EB28
:101CE0001C4422EA074C05FB07F206FB07F70CFB36
:101CF00006F605FB0CFC16EB074642EB174216EB0B
:101D00000C4642EB1C456A1854F1000148BF70476D
:101D1000B619524141EB0101A3F10103704795F05F
:101D2000000F37D04FEA11424FEA144721EA02462A
:101D300024EA074C02FB07F106FB07F70CFB06F44D
:101D400002FB0CFC14EB074441EB17414FEA15472B
:101D500014EB0C4441EB1C4125EA074C02FB07F550
:101D600006FB07F70CFB06F602FB0CFC16EB07461E
:101D700045EB174516EB0C4645EB1C42121951F189
:101D8000000148BF7047B619524141EB0101A3F170
:101D9000010370474FEA14454FEA114724EA05460C
:101DA00021EA074C05FB07F106FB07F70CFB06F2DF
:101DB0004FF0000605FB0CFC12EB074241EB17410C
:101DC00012EB0C4251EB1C4148BF7047921841EB9B
:101DD0000101A3F10103704700BFFEE72DE9F05FA9
:101DE00082464FF0000B0120204908700020204956
:101DF0000870204908702049087020490870504632
:101E000007F0E8FD1E49086000201E4908601E49D1
:101E100008601E4908601E49086001201D490870BD
:101E2000487001F029F8504607F032FB80461A4A04
:101E30001A4B07F0D5F906460022194B07F03CFB78
:101E4000044607F09BF983465946164803F00EFEF8
:101E50005946154803F00AFE0121144801F08AFC96
:101E600013A0FEF787FABDE8F09F00007400002081
:101E70007500002076000020770000207800002008
:101E80007C0000205C000020600000205400002046
:101E900058000020480100203F355EBA496C3440AC
:101EA0000060984098010020B8010020002C0140FB
:101EB000676F2073746172696768740D0A000000AF
:101EC0002DE9FC5F04464FF00009002500260020A4
:101ED000E1490870E1490870E1490870E14908707A
:101EE000E1490860E1490860E1490860E1490860AA
:101EF000DFF88493E14D022C01D1DFF884930121B6
:101F0000E04801F037FC00F0B7FF072C30D2DFE8E3
:101F100004F00430598EFDBAE2000120DA4908705D
:101F2000484607F0C7FB8246D84AD94B07F058F914
:101F3000074607F023F980F00040D649019007F0EA
:101F400091FD0646304607F0B5FB0746D24AD34B13
:101F500007F0B2FA824607F011F9064689F0004010
:101F6000CF4908600220CF494870CFA0FEF702FA9F
:101F700021E10220C4490870484607F09BFB8246D5
:101F8000C24AC34B07F02CF9074607F0F7F8C149DE
:101F9000019007F067FD0646304607F08BFB82464E
:101FA000BD4ABE4B07F088FA074607F0E7F8064639
:101FB000BB48C0F800900320BA494870BDA0FEF7A6
:101FC000D9F9F8E00320B0490870484607F072FBE1
:101FD0008246AE4AAE4B07F003F9074607F0CEF84B
:101FE000AC49019007F03EFD0646304607F062FB23
:101FF000824600224FF0804307F05EFA074607F062
:10200000BDF806460420A7494870484607F052FB31
:10201000824600224FF0804307F04EFA074607F051
:10202000ADF89F490860A6A0FEF7A4F9C3E004201C
:1020300095490870284607F03DFB8246934A944B29
:1020400007F0CEF8074607F099F880F00040914974
:10205000019007F007FD0646304607F02BFB0746C8
:102060008D4A8E4B07F028FA824607F087F806461D
:1020700085F000408A49086005208A49487093A08D
:10208000FEF778F997E005207F490870284607F0A9
:1020900011FB07467D4A7E4B07F0A2F8824607F007
:1020A0006DF87C49019007F0DDFC0646304607F0EC
:1020B00001FB0746784A794B07F0FEF9824607F0A4
:1020C0005DF806467648056006207649487082A08D
:1020D000FEF750F96FE006206B490870284607F0BC
:1020E000E9FA0746694A6A4B07F07AF8824607F030
:1020F00045F86849019007F0B5FC0646304607F000
:10210000D9FA82464FF06632764B00E01AE007F0CB
:10211000D3F9074607F032F80646284607F0CAFA10
:1021200007464FF066326F4B07F0C6F9824607F05C
:1021300025F85B49086008205A4948706AA0FEF7F4
:1021400019F938E0072050490870284607F0B2FA1C
:1021500007464E4A4E4B07F043F8824607F00EF80A
:1021600080F000404B49019007F07CFC0646304669
:1021700007F0A0FA074600224FF0804307F09CF9D1
:10218000824606F0FBFF064685F00040019007F00E
:1021900091FA074600224FF0804307F08DF98246FE
:1021A00006F0ECFF3E49086007203E49487051A008
:1021B000FEF7E0F800BF00BF01203A490870384838
:1021C000006807F077FA07468846304607F072FA4B
:1021D000824652460B464AA0CDE90078FEF7CAF87F
:1021E0002948007803280BD027480078022807D018
:1021F00025480078052803D02348007806280AD10E
:102200003146474803F032FC86F0004739464548DE
:1022100003F02CFC1DE01C48007801280FD01A4860
:102220000078042801D1012000E000201649097837
:10223000072901D1012100E00021084348B13146BE
:10224000374803F013FC86F000473946354803F061
:102250000DFCBDE8FC9F000074000020750000200C
:1022600076000020780000205C0000206000002044
:102270005400002058000020029A4B4135073E4090
:10228000E6AE5A41002C0140770000203F355EBA8F
:10229000496C34400000C344AE47E17A14AEEF3FCE
:1022A0007C000020480100206C6566745F39300AAC
:1022B0000000000072696768745F39300D0A000021
:1022C0006261636B5F3138300D0A00006C656674C3
:1022D0005F33300D0A00000072696768745F333045
:1022E0000D0A00006666FE3F72696768745F3630EB
:1022F0000D0A00006C6566745F36300D0A00000040
:102300004361725F5475726E5F76616C203D20256B
:10231000662C20675F667461723A25660D0A0000BC
:1023200098010020B80100200F48006828B90E4825
:10233000001D006808B9002070470B48006801289C
:1023400006D10948001D006810B94FF4C870F3E7C2
:102350000548006830B90448001D0068012801D113
:102360000248E9E70420E7E70081214270FEFFFF11
:1023700010B500210F4801F0FDF900200E4908704A
:102380000E49087001200E49087000200D490870A0
:102390000D4908700D4948700D4908600D490860E5
:1023A0000D4908600D49086000F066FD00F062FB11
:1023B00010BD0000002C01407400002075000020BA
:1023C00076000020770000207800002048010020DF
:1023D0005C00002060000020540000205800002015
:1023E0007047000010B50221134800F01BFA30B905
:1023F00012A0FDF7BFFF01201349C8700870022129
:102400000D4800F00FFA012807D110A0FDF7B2FF28
:1024100000200D49C8700120087000BF3CB14FF08A
:1024200080500D490860BFF34F8FBFF36F8F00BF1F
:10243000022000F013F810BD0008014079616F77A9
:1024400075207A7A0D0A00004801002079616F77C3
:102450007520787A0D0A000004ED00E0014908605B
:102460007047000014040140002123498279002AAA
:102470003AD00A46126803689A430B461A600A1D4E
:10248000126803689A430B1D1A60027911440A68A6
:1024900003681A430A60184A0832126803689A43AC
:1024A000154B08331A601A1D126803689A43124BC1
:1024B0000C331A604279102A0ED11A1F1268036871
:1024C0001A430D4B08331A601A1D126803681A4329
:1024D000094B0C331A600DE00749427911440A6830
:1024E00003681A430A6005E0027911440A68036828
:1024F0009A430A60704700000004014030B587B07D
:1025000004460D460121022000F0F8FC01210420C0
:1025100000F014FDC020ADF8000004208DF8030089
:1025200069461C4800F0AAF804A801F003FB00204B
:10253000ADF810004FF6FF70ADF814000020ADF8B4
:102540001600ADF8120004A9134801F0A1FA002307
:102550001A460321104801F028F901A801F0AEF94C
:102560000A20ADF80C0001A90B4801F051F9012136
:10257000094801F0F9F801221146074801F0A7F9CE
:102580000021054801F056FA0121034801F0F2F854
:1025900007B030BD000801400004004030B587B0EE
:1025A00004460D460121042000F0A8FC012108206A
:1025B00000F0C4FCC020ADF8000004208DF803003A
:1025C00069461C4800F05AF804A801F0B3FA00204C
:1025D000ADF810004FF6FA70ADF814000020ADF819
:1025E0001600ADF8120004A9134801F051FA0023B7
:1025F0001A460321104801F0D8F801A801F05EF94D
:102600000A20ADF80C0001A90B4801F001F90121E5
:10261000094801F0A9F801221146074801F057F9CD
:102620000021054801F006FA0121034801F0A2F853
:1026300007B030BD000C01400008004030B500225A
:102640008B071C0F0F2303FA04F20B4B8C1053F86B
:1026500024309343084C8D1044F8253023468C10C9
:1026600053F824308C07240F00FA04F42343024C5F
:102670008D1044F8253030BD080001402DE9F041AF
:10268000024600250026002000230024002791F8A0
:1026900003C00CF00F0591F803C00CF0100CBCF156
:1026A000000F03D091F802C04CEA050591F800C074
:1026B000BCF1000F31D0146800202BE04FF0010C6A
:1026C0000CFA00F3B1F800C00CEA03069E4220D1D8
:1026D00083004FF00F0C0CFA03F7BC4305FA03FC20
:1026E0004CEA040491F803C0BCF1280F06D14FF066
:1026F000010C0CFA00FCC2F814C00AE091F803C007
:10270000BCF1480F05D14FF0010C0CFA00FCC2F8E7
:1027100010C0401C0828D1D31460B1F800C0BCF12F
:10272000FF0F34DD546800202EE000F1080C4FF05C
:10273000010808FA0CF3B1F800C00CEA03069E4247
:1027400021D183004FF00F0C0CFA03F7BC4305FABC
:1027500003FC4CEA040491F803C0BCF1280F05D136
:1027600000F1080C08FA0CF8C2F8148091F803C0C4
:10277000BCF1480F07D100F1080C4FF0010808FA2E
:102780000CF8C2F81080401C0828CED35460BDE875
:10279000F0810000F0B50A46002300240021002546
:1027A00000F00046B6F1004F02D11D4EF16901E084
:1027B0001B4E7168C0F3034583B200F44016B6F5B2
:1027C000401F08D121F07061154E766826F07066C2
:1027D000134F7E6012E000F48016B6F5801F06D11C
:1027E000032606FA05F4A14341F0706106E0460DA8
:1027F000360103FA06F6B14341F0706122B1460D8D
:10280000360103FA06F6314300F00046B6F1004FF8
:1028100002D1034EF16101E0014E7160F0BD000094
:10282000000001400246002093680B400BB10120DC
:1028300000E000207047416170470161704700006F
:102840001FB50121082000F079FB0121042000F0D0
:1028500075FB0320ADF80C0028208DF80F00032035
:102860008DF80E0003A91948FFF708FF0220ADF804
:102870000C0048208DF80F0003208DF80E0003A9EE
:102880001348FFF7FBFE01210020FFF7D7FE0220CF
:10289000019000208DF8080010208DF8090001201B
:1028A0008DF80A0001A8FFF7DFFD07208DF8000072
:1028B00009208DF8010000208DF8020001208DF81C
:1028C0000300684600F018F91FBD0000000C01402D
:1028D0000008014000BFFEE710B520210748FFF7C0
:1028E000ACFF10210548FFF7A8FF10210348FFF7B0
:1028F000A2FF20210148FFF79EFF10BD0008014004
:1029000010B520210548FFF798FF10210348FFF775
:1029100092FF10210148FFF790FF10BD0008014011
:1029200010B520210348FFF788FF20210148FFF759
:1029300082FF10BD0008014008B50121084600F0E3
:10294000FDFA01211648FFF725FF0121142000F0B0
:10295000F5FA4FF40050ADF8000010208DF8030098
:1029600003208DF8020069460E48FFF787FE4FF4FA
:1029700000510C48FFF761FF10208DF803004FF461
:102980001840ADF8000003208DF8020069460648A3
:10299000FFF774FE4FF418410348FFF74EFF08BDE0
:1029A00000043000001001400008014070B50446EA
:1029B0000D4612480078401C1049087008460078FF
:1029C000012809DB0020087001F07CFF0C49086039
:1029D00001F09CFF0B490860094801680A4803F0B0
:1029E00045F808480168094803F040F803F040F84A
:1029F000206003F06BF8286070BD00004C000020E0
:102A0000680000207000002058010020780100209C
:102A100000BFFEE701200349086000200249C1F819
:102A2000B4017047B0812142008021420020034957
:102A3000086001200249C1F8B4017047B081214209
:102A40000080214200200349086001200249C1F8AA
:102A5000BC017047B8812142008021420120034916
:102A6000086000200249C1F8BC017047B8812142CA
:102A7000008021420020064908600649C1F8B401DF
:102A80000349083108600349C1F8BC0170470000E0
:102A9000B08121420080214270B504460D46002CD1
:102AA00002DBFFF7B7FF02E0FFF7C0FF6442B4F5B7
:102AB000B45F02DD4FF4B45000E020460446002D20
:102AC00002DBFFF7BFFF02E0FFF7C8FF6D42B5F57D
:102AD000B45F02DD4FF4B45000E028460546A9B2C9
:102AE0004FF0804000F0A1FFA1B24FF0804000F015
:102AF0009EFF70BD7047000070B5002100230F22BB
:102B0000C47804B3154C246804F4E064C4F5E064AC
:102B1000210AC1F10403CA40447804FA03F184781D
:102B20001440214309010E4C0678A155047804F0A5
:102B30001F050124AC4005786D11AD0005F1E025BD
:102B4000C5F8004109E0047804F01F050124AC40F9
:102B5000044D0678761145F8264070BD0CED00E076
:102B600000E400E080E100E002490143024A116014
:102B7000704700000000FA050CED00E070B500247D
:102B800018E004F1B000002100F069F900210846C6
:102B900000F065F90021102000F061F9002505E042
:102BA0000121002000F05BF9681CC5B2802DF7DB25
:102BB000601CC4B2082CE4DB70BD000008B5012124
:102BC000042000F0BBF93020ADF8000010208DF893
:102BD000030003208DF8020069463C48FFF74EFDD4
:102BE00030213A48FFF729FE4FF4C87001F04CFC41
:102BF0000021AE2000F033F90021084600F02FF943
:102C00000021102000F02BF90021402000F027F9CE
:102C10000021B02000F023F90021812000F01FF9ED
:102C20000021FF2000F01BF90021A12000F017F97E
:102C30000021A62000F013F90021A82000F00FF9D0
:102C400000213F2000F00BF90021C82000F007F917
:102C50000021D32000F003F90021084600F0FFF81E
:102C60000021D52000F0FBF80021802000F0F7F8CB
:102C70000021D82000F0F3F80021052000F0EFF843
:102C80000021D92000F0EBF80021F12000F0E7F856
:102C90000021DA2000F0E3F80021122000F0DFF834
:102CA0000021DB2000F0DBF80021302000F0D7F815
:102CB00000218D2000F0D3F80021142000F0CFF87F
:102CC0000021AF2000F0CBF808BD00000008014053
:102CD00070B504460D4605F1B000002100F0BFF8C4
:102CE000102141EA1410002100F0B9F804F00F009F
:102CF000002100F0B4F870BD2DE9F04707460E46FC
:102D00009046994600250024A8F12000C5B27F2FE7
:102D100002DD0027B01CC6B2B9F1100F24D1314634
:102D20003846FFF7D5FF002408E004EB0511194AE7
:102D3000505C012100F093F8601CC4B2082CF4DB55
:102D4000701CC1B23846FFF7C3FF002409E004EB52
:102D5000051108310F4A505C012100F080F8601C19
:102D6000C4B2082CF3DB12E031463846FFF7B0FF5F
:102D700000240AE005EB4501074A02EB4101085D2A
:102D8000012100F06CF8601CC4B2062CF2DBBDE837
:102D9000F08700008E9F0008669D00082DE9FF5F08
:102DA000074691461E460E9D4FF0000A002435E06E
:102DB000301B401EC1B20A2001F054FFB9FBF0F0F5
:102DC0000A21B0FBF1F201FB1208BAF1000F14D195
:102DD000701EA04211DDB8F1000F0CD1AB4605EB1F
:102DE000DB71491001FB0471C8B22B462022019906
:102DF000FFF782FF10E04FF0010AAB4605EBDB71F5
:102E0000491001FB0471C8B208F13001CAB22B4667
:102E10000199FFF771FF00BF601CC4B2B442C7DB69
:102E2000BDE8FF9F2DE9F04104460F461546984640
:102E300000260FE0AA5D434639462046FFF75CFFB7
:102E400004F10800C4B2782C02DD0024B81CC7B21B
:102E5000701CC6B2A85D0028ECD1BDE8F08170B549
:102E600004460D461DB1E0B201F06CF902E0E0B29B
:102E700001F052F970BD000000201A490860486056
:102E80008860C860C861184808610020486188618E
:102E90001649086048608860C860C8614FF07E507D
:102EA0000861134848614FF07F5088610020114944
:102EB000086048608860C860C8610B4808610020ED
:102EC000486188610C49086048608860C860C861D2
:102ED0004FF07E500861064848614FF07F5088618E
:102EE00070470000980100208FC2753E58010020F5
:102EF000CDCCCC3EB80100207801002029B1064A93
:102F0000D2690243044BDA6104E0034AD269824386
:102F1000014BDA61704700000010024029B1064AF7
:102F200012690243044B1A6104E0034A12698243A6
:102F3000014B1A61704700000010024029B1064A97
:102F400092690243044B9A6104E0034A9269824306
:102F5000014B9A61704700000010024029B1064AF7
:102F6000D2680243044BDA6004E0034AD268824329
:102F7000014BDA60704700000010024030B50021BC
:102F80000022002400232D4D6D6805F00C0121B1B5
:102F9000042905D0082923D105E0294D056022E048
:102FA000274D05601FE0254D6D6805F47012234D17
:102FB0006D6805F48034022505EB92421CB9214D61
:102FC000554305600BE01D4D6D6805F400351DB1DE
:102FD0001C4D5543056002E0194D5543056002E064
:102FE000174D056000BF00BF144D6D6805F0F0017E
:102FF0000909154D6B5C0568DD4045600F4D6D6836
:1030000005F4E061090A104D6B5C4568DD408560A0
:103010000A4D6D6805F46051C90A0B4D6B5C45683B
:10302000DD40C560054D6D6805F44041890B074DD5
:103030006B5CC568B5FBF3F5056130BD001002405F
:1030400000127A0000093D009E000020AE00002022
:1030500010B50346032B02D0042B1BD10DE00E4804
:103060000088404201B20D48006808440B4C2060C3
:103070000020094C2080084610BD0948008802B293
:10308000084800681044074C20600020044C208051
:103090001046F1E70020EFE7240400405400002030
:1030A000240800405800002010B5002400BF0BE0A9
:1030B000074802780748017807A003F0D5F80A20EE
:1030C00001F0BEF9601CC4B21E2CF1DB10BD000083
:1030D0008A0000208B0000202A2564256426000039
:1030E00010B500F001F810BD0CB500200190009063
:1030F0003348006840F480303149086000BF3048F0
:10310000006800F4003000900198401C0190009885
:1031100018B90198B0F5A06FF1D12948006800F402
:10312000003010B10120009001E0002000900098D4
:10313000012843D12348006840F01000214908606D
:103140000846006820F0030008600846006840F068
:10315000020008601A4840681949486008464068FB
:1031600048600846406840F480604860084640680F
:1031700020F47C1048600846406840F4E81048603D
:103180000846006840F08070086000BF0C48006886
:1031900000F000700028F9D00948406820F00300D2
:1031A000074948600846406840F00200486000BF98
:1031B0000348406800F00C000828F9D10CBD00005D
:1031C000001002400020024010B52B4880780128F2
:1031D00050D12A4801782AA0FDF7CCF8264800787B
:1031E000012806D141202A4908700220234908708D
:1031F00014E021480078022806D1422024490870B2
:1032000002201E49087009E01B480078032805DBEE
:1032100047201F4908700220184908701648007896
:10322000092826D2DFE800F02505090D1115191D22
:1032300021000120174908701BE002201549087081
:1032400017E003201349087013E0042011490870A7
:103250000FE005200F4908700BE006200D490870AB
:1032600007E007200B49087003E0082009490870AF
:1032700000BF00BF10BD00008C0000208B000020AC
:1032800073656E64207461736B3A2025640D0A00C7
:10329000900000208A000020042808D14FF0E0218F
:1032A000096941F004014FF0E022116107E04FF09D
:1032B000E021096921F004014FF0E022116170471B
:1032C00010B504F0BDFB012801D003F0C9FE10BD0C
:1032D00010B51348006840F0010011490860084625
:1032E0004068104908400E494860084600680E4989
:1032F00008400B4908600846006820F480200860F8
:103300000846406820F4FE0048604FF41F008860C3
:10331000FFF7E6FE4FF000600449086010BD0000B2
:10332000001002400000FFF8FFFFF6FE08ED00E08D
:1033300008B501210420FFF701FE01210820FFF755
:10334000FDFD01210846FFF7F9FD4FF47040ADF88F
:10335000000010208DF8030003208DF8020069465C
:103360000448FFF78BF94FF470410248FFF765FA04
:1033700008BD0000000C0140F0B50C4615460022C7
:103380000021068C4FF6FE773E400684028B018CAE
:103390004FF60C7632407E1C06EA03162E4332436B
:1033A000104EB0420ED0104EB0420BD0B0F1804F54
:1033B00008D00E4EB04205D00D4EB04202D00D4E98
:1033C000B04206D14FF6FD76314044F0010631435C
:1033D00005E04FF6F576314044F0010631430283B3
:1033E0000184F0BD002C0140003401400004004085
:1033F00000080040000C0040F0B50C4615460022C5
:1034000000210026078C4FF6EF7C07EA0C070784A3
:10341000028B018C4FF6FF7707EA041640F6FF4750
:103420003A404FF6FF7707EA03373A434FF6FF7704
:1034300007EA05273A43114FB8420ED0104FB84261
:103440000BD0B0F1804F08D00E4FB84205D00E4FD0
:10345000B84202D00D4FB84206D14FF6DF7739405F
:1034600046F01007394305E04FF65F77394044F0E6
:103470001007394302830184F0BD0000002C014095
:10348000003401400004004000080040000C0040EF
:10349000F0B50C461546002200210026078C4FF699
:1034A000FF6C07EA0C070784828B018C4FF6FF77CD
:1034B00007EA04264FF60C773A404FF6FF7707EA03
:1034C00003172F433A43114FB8420ED0104FB84262
:1034D0000BD0B0F1804F08D00E4FB84205D00E4F40
:1034E000B84202D00D4FB84206D14FF6FF573940CF
:1034F00046F48077394305E04FF2FF57394044F4F2
:103500008077394382830184F0BD0000002C0140A4
:10351000003401400004004000080040000C00405E
:10352000F0B50C461546002200210026078C4EF609
:10353000FF7C07EA0C070784828B018C4FF6FF772C
:1035400007EA043640F6FF473A404FF6FF7707EAAE
:1035500005273A434FF6FF7707EA03373A43114FFF
:10356000B8420ED0104FB8420BD0B0F1804F08D007
:103570000E4FB84205D00E4FB84202D00D4FB842A0
:1035800006D14DF6FF77394046F48057394305E0C0
:1035900047F6FF57394044F480573943828301840A
:1035A000F0BD0000002C0140003401400004004048
:1035B00000080040000C00407FB505460C46012184
:1035C000C802FFF7BBFCADF80850ADF8044000207E
:1035D000ADF80A00ADF8060001A9104800F058FA4D
:1035E000012211460D4800F072F901210B4800F04C
:1035F000BBF819208DF8000005208DF8010000208F
:103600008DF8020001208DF803006846FFF774FA78
:103610000121024800F0AEF87FBD0000002C0140FF
:1036200038B500240121104800F0E0F801280AD143
:1036300069460E48006803F067FF0446012C02D07B
:103640000BA0FCF797FE00BF009838B14FF08050F8
:1036500014490860BFF34F8FBFF36F8F00BF012184
:10366000014800F084F838BD002C014024000020FF
:1036700053706F72745F4D6F64655F42696E5F5324
:10368000656D6170686F726548616E646C65204736
:1036900049564546524F4D45495352204552524F87
:1036A000520D0A0004ED00E030B589B005460C4625
:1036B00001210846FFF722FC01210520FFF73EFC0F
:1036C00018208DF823000C20ADF8200003208DF881
:1036D000220008A91D48FEF7D1FF0020ADF81A000E
:1036E000ADF81850ADF81440ADF8160005A94FF02C
:1036F000804000F0CDF97020ADF804000120ADF855
:1037000006000020ADF80A000220ADF80C0001A967
:10371000400700F0E5F801A94FF0804000F03AF9C9
:103720000121880700F032F80821C80600F028F9C6
:103730000821C80600F06CF90121880700F008F89C
:103740000121880700F016F809B030BD00080140DB
:1037500021B1028842F08002028004E002884FF624
:103760007F731A4002807047CA4302827047CA437F
:103770000282704721B1028842F00102028004E017
:1037800002884FF6FE731A400280704731B1B0F8DC
:10379000442042F40042A0F8442005E0B0F8442060
:1037A000C2F30E02A0F844207047F0B50C4615464F
:1037B0001E460021002200230189028B038C4FF654
:1037C000F877394021434FF6FC473A4040F2011761
:1037D0003A434FF6DD773B404FF6FF7707EA06178F
:1037E0002F433B43018102830384F0BD30B5024681
:1037F000002000230024158A05EA0103958905EAC3
:10380000010413B10CB1012000E0002030BD000024
:1038100070B505460C46244885420ED023488542A3
:103820000BD0B5F1804F08D02148854205D0214802
:10383000854202D02048854200D100E000BF2088A8
:1038400050B92389A28861882846FFF795FDE18851
:10385000284600F0F1F825E0208804280AD12389C1
:10386000A28861882846FFF7C7FDE188284600F056
:10387000ECF817E0208808280AD12389A2886188FB
:103880002846FFF705FEE188284600F0EBF809E03E
:103890002389A28861882846FFF742FEE1882846EE
:1038A00000F0E9F870BD0000002C01400034014038
:1038B0000004004000080040000C0040002101808E
:1038C0004180012181800021C180018170471AB1AE
:1038D00083890B43838102E083898B438381704713
:1038E00070B5002400220023058C4FF6FF6635409A
:1038F0000584028C8388848B4FF68F752C404FF69D
:10390000FC752C400D882C434FF6FF552A400D893D
:103910004FF6FF7606EA05252A434D8806EA052577
:103920002A43154DA84202D0144DA8421DD14FF292
:10393000FF752A404D894FF6FF7606EA05252A4392
:103940004FF6FF352A408D8806EA05252A434EF6B4
:10395000FF752B404DF6FF752B408D8906EA051546
:103960002B43CD8906EA05152B4383808483CD88BC
:103970008587028470BD0000002C014000340140A6
:103980000A460021818B4FF6F7731940114381835A
:103990007047000070B5002200230024058C4EF60D
:1039A000FF7635400584038C8488828B48F6FF754A
:1039B0002A404FF6FF452A400D884FF6FF7606EA6B
:1039C00005252A434DF6FF752B400D8906EA05357E
:1039D0002B434D8806EA05352B430B4DA84202D0F8
:1039E0000A4DA84208D14BF6FF752C408D894FF641
:1039F000FF7606EA85152C4384808283CD88A0F863
:103A00004050038470BD0000002C01400034014090
:103A10000A460021818B4FF2FF7319404FF6FF7366
:103A200003EA022319438183704781877047A0F816
:103A30004010704781847047028B4FF6F3731A4031
:103A40000283028B0A4302837047028B4FF2FF33DB
:103A50001A400283028B4FF6FF7303EA01231A43D5
:103A600002837047828B4FF6F3731A408283828BF6
:103A70000A4382837047828B4FF2FF331A4082835E
:103A8000828B4FF6FF7303EA01231A438283704748
:103A9000002202881D4B98420ED01D4B98420BD03D
:103AA000B0F1804F08D01B4B984205D01A4B98427A
:103AB00002D01A4B984204D14FF68F731A404B88AC
:103AC0001A43174B984207D0164B984204D04FF632
:103AD000FF431A40CB881A4302808B8883850B886A
:103AE00003850A4B98420BD0094B984208D00E4BE5
:103AF000984205D00D4B984202D00D4B984201D10F
:103B00000B7A03860123838270470000002C01405A
:103B1000003401400004004000080040000C004058
:103B200000100040001400400040014000440140EB
:103B3000004801404FF6FF71818000210180C18063
:103B4000418001727047000010B540F22551414894
:103B500000F0F1F9002871D03E4800F0A7FAC4B295
:103B6000FD2C02D100203C4908803B48008800F42D
:103B7000004058BB3848008800F4804060B10A2CEF
:103B800003D000203449088020E03348008840F406
:103B900000403149088019E00D2C06D12E480088DC
:103BA00040F480402C49088010E02B480088C0F386
:103BB0000D002A490C5428480088401C26490880DA
:103BC00008460088C72801DD0020088022480088B8
:103BD00000F4004090B321480078FD282ED11F4802
:103BE00040781F4948701D4880780D2802D01B4836
:103BF0008078C8701948C0780A2803D01748C07860
:103C00001749087116484078AA2810D1134800783F
:103C1000FD280CD101201249887012A0FCF7AAFBE4
:103C2000032000F03FFB01201149087308700020B9
:103C300009490880C8210948FCF73EFD00BF3DB195
:103C40004FF080500B490860BFF34F8FBFF36F8F69
:103C500000BF10BD003801409C000020E00500209E
:103C6000D7050020C5E4B6D4B3C9B9A60D0A000033
:103C70004801002004ED00E03EB540F225515C48CB
:103C800000F059F900287DD0594800F00FFAC4B26D
:103C900058485949097844545848007868B92C2C38
:103CA0000BD1012055490870554801780078401C17
:103CB000534A1070534844548FE05048007801280C
:103CC0000DD1122C0BD102204C4908704C480178C0
:103CD0000078401C4A4A10704A4844547DE04748E6
:103CE0000078022853D1464801780078401C444AA5
:103CF000107044484454104600780A2801DA5B2CBE
:103D00006BD103203D4908703D480078401F3D4974
:103D1000085C3D4908703A480078001F3949085C42
:103D20003949487036480078C01E3649085C364923
:103D3000887033480078801E3249085C3249C87068
:103D40000120324908702F4A2F48C078C97ACDE93E
:103D5000010200912C4843782C4802792A480178C6
:103D60002BA0FCF707FB2948007918B926480078F2
:103D7000264908712548C07A20BB21480078001FD9
:103D8000204900E02EE0085C2049C87225E01B486D
:103D90000078032817D11A480078401E1949085C9A
:103DA0005B2805D10020164908701449087014E0FA
:103DB0000020124908701249087012480021016061
:103DC0004160018109E000200C4908700C4908702D
:103DD0000C48002101604160018107480078401CC7
:103DE0000549087040F22551014800F02DF83EBD0C
:103DF00000480040D80100208700002092000020E9
:103E000091000020C00500208C0000204801002007
:103E1000B2A1B7BF3A25642C20B2A1B7BF323A2570
:103E2000642C20B7BDCFF23A256420B7BDCFF23263
:103E30003A25642C20C4A3CABD3A25642C2073748F
:103E4000723A25730D0A000010B50022002340F6D7
:103E50006A14A14200D100BF0A1201249440A3B207
:103E6000DC43048010BD21B1828942F4005282817A
:103E700004E082894DF6FF731A408281704700008A
:103E800010B504462048844209D101218803FFF778
:103E900065F800214FF48040FFF760F832E01B48DE
:103EA000844209D101214804FFF738F800214FF47A
:103EB0000030FFF733F825E01548844209D101218D
:103EC0008804FFF72BF800214FF48020FFF726F835
:103ED00018E01048844209D10121C804FFF71EF8F8
:103EE00000214FF40020FFF719F80BE00A48844244
:103EF00008D101210805FFF711F800214FF48010C7
:103F0000FFF70CF810BD00000038014000440040ED
:103F100000480040004C0040005000400246002095
:103F2000B1F5007F00D100BF13880B400BB1012019
:103F300000E00020704770B50246002400230025F1
:103F4000002040F66A16B14200D100BFC1F342150D
:103F500001F01F03012606FA03F3012D02D1968911
:103F6000334006E0022D02D1168A334001E0968AE2
:103F700033400C12012606FA04F41688344013B1BB
:103F80000CB1012000E0002070BDF0B50346002414
:103F900000260025002040F66A17B94200D100BF74
:103FA0001846C1F3421401F01F06012707FA06F56F
:103FB000012C01D10C3004E0022C01D1103000E0C2
:103FC00014301AB107682F43076002E00768AF4357
:103FD0000760F0BD2DE9F04786B005460E46002487
:103FE000A24600BFA1460027B08900B100BF2F46FE
:103FF0002C8A4CF6FF700440F08804432C82AC8974
:104000004EF6F3100440B0883189084371890843A3
:104010000443AC81AC8A4FF6FF400440B0890443AE
:10402000AC8201A8FEF7AAFF1F48874202D1DDF843
:1040300010A001E0DDF80CA0A88900F4004040B118
:104040000AEBCA0000EB0A1031684900B0FBF1F836
:1040500007E00AEBCA0000EB0A1031688900B0FBE8
:10406000F1F86420B8FBF0F004012009642101FBA1
:104070001089A88900F4004040B1322000EBC9004B
:10408000B0FBF1F000F00700044308E0322000EB41
:1040900009106421B0FBF1F000F00F0004432C8103
:1040A00006B0BDE8F087000000380140014688886E
:1040B000C0F308007047C1F308028280704700BF58
:1040C000FEE700002DE9F04105462C46202111486D
:1040D000FEF7B1FB002619E0274607F08007802F86
:1040E00004D110210B48FEF7A8FB03E0102109487A
:1040F000FEF7A1FB6006040E20210648FEF79DFB9B
:1041000020210448FEF797FB701CC6B2082EE3DBA3
:10411000BDE8F0810008014010B50446FEF7DCFB65
:104120007820FFF7CFFFFEF7FBFB0020FFF7CAFF69
:10413000FEF7F6FB2046FFF7C5FFFEF7F1FBFEF7A3
:10414000DFFB10BD10B50446FEF7C6FB7820FFF775
:10415000B9FFFEF7E5FB4020FFF7B4FFFEF7E0FBF9
:104160002046FFF7AFFFFEF7DBFBFEF7C9FB10BDF4
:10417000490050EAC12018BF04204A0D18BF40F082
:10418000010040F2FF72B2EB515F08BF40F0020045
:10419000012808BF0520704730380A2801D20120C5
:1041A00070470020704700BF704700003CE01F4888
:1041B0000078012807D11EA0FCF7DCF8FEF774FF99
:1041C000FFF702F82DE019480078022829D11E488F
:1041D000007802280FDC1DA0FCF7CCF8FEF7F4FFF6
:1041E000FEF762FF40F6B83000F00AF92048006898
:1041F00002F0D4FC12E01448007803280EDB1DA066
:10420000FCF7B8F8FEF7E0FFFEF74EFF4FF47A70C8
:1042100000F0F6F82248006802F0C0FC002002F02E
:1042200025FBC82000F0ECF8C1E700008B0000205F
:1042300063686178756E2062696E6766616E676833
:10424000616F0D0A000000008C0000206A696E207A
:104250006475616E20736F6E672079616F2072657F
:104260006E207775206B6169207368690D0A000004
:10427000100000207A686F6E67207975616E206487
:1042800075616E20736F6E672079616F2072656E45
:10429000207775206B6169207368690D0A00000042
:1042A0001800002038B50446012C2DD1FF202149EB
:1042B00048728872FD2008700D20C8720A200873A9
:1042C0000846807801280AD10846C0780090084640
:1042D00001783123CC2218A0FCF74CF829E01548CE
:1042E000807802280AD11348C078009011480178DC
:1042F0003223CC2210A0FCF73DF81AE00D4881785B
:1043000010A0FCF737F814E0022C08D10A200D2386
:10431000BB22FD21009008A0FCF72CF809E0032C3B
:1043200007D10A200D23AA22FD2100900FA0FCF73F
:1043300021F838BDCA050020256325632563256360
:104340000D0A0000636172315F73656E645F6461C2
:1043500074612E7A686F6E675F6F725F7975616ED8
:10436000206572726F722825642900002563256319
:1043700025632563000000000948C088401C0849E7
:10438000C8800846C0883C2805D10846007A401CF1
:1043900008720020C88001200149087070470000A1
:1043A0004801002010B50420FEF776FF1048006891
:1043B0001049B0FBF1F0104908700D4800680D4934
:1043C000B0FBF1F44FF47A70444301200B490880AC
:1043D0004FF0E020006940F002004FF0E02108615A
:1043E00008464461006940F00100086110BD00000A
:1043F0003800002040420F0094000020960000206A
:1044000070B5044603F01CFB012810D00B4800884F
:10441000844206D309480088B4FBF0F5284602F030
:10442000EBF906480088B4FBF0F100FB11444FF4AF
:104430007A7104FB01F000F003F870BD96000020D3
:1044400070B5034600224FF0E02675690D4E3678B0
:1044500003FB06F44FF0E026B16910E04FF0E026D0
:10446000B06988420BD0884202D20E1A324402E070
:104470002E1A0E4432440146A24200D300E0EDE77A
:1044800000BF70BD9400002030B50446002504E054
:104490004FF47A70FFF7D4FF6D1CA542F8D330BDFE
:1044A00000BF054A128802F04002002AF9D0C2B2C9
:1044B000014B1B1D1A8070470038014008B50024CD
:1044C0000025CDE06748407A01287AD16548007917
:1044D000012803D0634800790228F6D16148C078EA
:1044E0000028F2D101205F498872062C6AD2DFE8E9
:1044F00004F0032A3B576A7B5B48006890B103F0E5
:10450000AFFA064600200346324601210090564885
:10451000006803F047FE0546012D06D053A0FBF7C7
:1045200029FF02E05AA0FBF725FF0120604908603F
:104530006049C1F8BC015E49091D086001240220E0
:10454000FDF7BEFC88E05C48007801280BD196207E
:10455000FFF756FF022459A0FBF70CFFFEF78CFC77
:104560002E20FDF73BFC77E053480078012816D158
:104570009620FFF745FF55A0FBF7FCFE0324FEF74E
:104580007BFC38480079012802D1FDF799FC06E050
:1045900034480079022802D10020FDF791FC5BE04D
:1045A0004548007801280BD19620FFF729FF042405
:1045B000FEF762FC41A0FBF7DDFE4620FDF70EFC96
:1045C0004AE04AE047E03C48007801280BD19620B9
:1045D000FFF716FF0524FEF74FFC3CA0FBF7CAFED1
:1045E0000220FDF76DFC37E033480078012831D117
:1045F0009620FFF705FF062400201A4908718872EB
:104600000120087000210846FEF746FA16480068A7
:1046100078B100200346024603210090124800684A
:1046200003F0C0FD0546012D06D010A0FBF7A2FE49
:1046300002E017A0FBF79EFE01201D490860002044
:104640001C49C1F8BC0101201949091D086000205E
:1046500002F06EFB00E000BF00BF0220FFF7D0FEBB
:1046600030E7000048010020300000204361725F05
:1046700052756E5F54696D655F48616E646C65204C
:104680006973204E4F54207064504153530D0A00FB
:104690004361725F52756E5F54696D655F48616E0C
:1046A000646C65206973204E554C4C0A0000000074
:1046B000AC0121420000214276000020676F207388
:1046C000746172696768740D0A0000007374617226
:1046D00074207370696E0D0A0000000008B5002593
:1046E0000024A0E050480079012803D04E4800790A
:1046F0000228F6D14C48C07801287DD14A498872F9
:1047000035B1012D27D0022D42D0032D75D150E0B7
:104710004648006890B103F0A3F90646002003461E
:104720003246012100904148006803F03BFD0446F9
:10473000012C06D03EA0FBF71DFE02E045A0FBF7D2
:1047400019FE01254BA0FBF715FEFEF795FB462051
:10475000FDF744FB63E04B480078012817D1962011
:10476000FFF74EFE48A0FBF705FE0225FEF784FB8F
:104770002D480079012803D10020FDF7A1FB06E0B8
:1047800029480079022802D10120FDF799FB46E073
:104790003C48007801280BD19620FFF731FE032515
:1047A000FEF76AFB33A0FBF7E5FD2E20FDF716FBB5
:1047B00035E03448007801282FD100BF0020364969
:1047C000086001203549C1F8BC013349091D086062
:1047D000042515494872002088721448006890B179
:1047E000002003460246032100901048006803F0B1
:1047F000D9FC0446012C01E012E00FE006D00CA029
:10480000FBF7B8FD02E013A0FBF7B4FD24480068F5
:1048100002F0C4F9002002F08BFA00E000BF00BFF4
:104820001420FFF7EDFD5DE7480100203000002077
:104830004361725F52756E5F54696D655F48616E6A
:10484000646C65206973204E4F542070645041534E
:10485000530D0A004361725F52756E5F54696D6556
:104860005F48616E646C65206973204E554C4C0A3C
:1048700000000000676F2073746172696768740DCF
:104880000A00000076000020737461727420737057
:10489000696E0D0A00000000AC01214200002142B7
:1048A0001400002009E005480068C0430449C1F82D
:1048B000B4014FF4FA70FFF7A3FDF4E7B40122420C
:1048C0000000224270B5002400250C48006805F065
:1048D00069F8054629460A4800F03CF804460949AB
:1048E000204605F08BF901D2064C05E0064920462A
:1048F00005F084F800D2044C204670BD540000201E
:104900009801002000000C4300000CC370B5002487
:1049100000250C48006805F045F8054629460A4878
:1049200000F018F804460949204605F067F901D25D
:10493000064C05E00649204605F060F800D2044C1C
:10494000204670BD58000020B801002000000C4334
:1049500000000CC32DE9F04704460D4629462068A7
:1049600005F088F9A060A168E06904F0CFFEE0617D
:10497000D4E9020105F07EF98046A16905F072F8DC
:104980000646E169606905F06DF88046A168206916
:1049900005F068F88146414604F0B8FE0746314606
:1049A00004F0B4FE6060A068E0606068BDE8F08775
:1049B0001CB54FF44070FEF7D7F8FFF7F3FC4FF447
:1049C000E13001F079FC4FF4E13001F0C7FC00F078
:1049D00015F9FDF7B1FFFEF7F1F8FEF7CFF8FEF796
:1049E0004BFA002141F61F40FEF75EFE41F61F41E3
:1049F000C720FEF7E1FD00210846FDF77FFD0021FD
:104A00000846FDF7CBFDFEF793FCFDF719FF0748BD
:104A1000012100239622CDE9001005A1074802F0EC
:104A2000DFFF02F02BF900201CBD00000000002079
:104A300073746172745F7461736B00008560000849
:104A400010B5102313A200210846FEF7EBF910233E
:104A500012A202210020FEF7E5F9102311A2042181
:104A60000020FEF7DFF9102310A206210020FEF738
:104A7000D9F910230FA206215820FEF7D3F90823F5
:104A80000DA200215A20FEF7CDF90D4800F01AF8CA
:104A900010BD00007374617475733A00676F6F73B3
:104AA000653A0000726F6F6D3A00000074696D65C1
:104AB0003A0000006C793A00436172312000000036
:104AC0004801002038B5044600202070607809288D
:104AD00045D2DFE800F0050C131A21282F363D00DF
:104AE000102334A200213A20FEF79CF938E010236D
:104AF00032A200213A20FEF795F931E0102331A2CD
:104B000000213A20FEF78EF92AE010232FA200217F
:104B10003A20FEF787F923E010232EA200213A2045
:104B2000FEF780F91CE010232CA200213A20FEF7AA
:104B300079F915E010232BA200213A20FEF772F933
:104B40000EE0102329A200213A20FEF76BF907E0BE
:104B5000102328A200213A20FEF764F900E000BFEC
:104B600000BF10200090E278022319463A20FEF799
:104B700015F9102000902279022304213A20FEF733
:104B80000DF910200090227A032306212220FEF73F
:104B900005F910200090E288032306213C20FEF74F
:104BA000FDF810200090227B022306216E20FEF7E4
:104BB000F5F838BD53746F7000000000476F202077
:104BC000000000004C5F393000000000525F3930B7
:104BD000000000004261636B000000004C5F333056
:104BE00000000000525F3330000000004C5F3630A0
:104BF00000000000525F36300000000000B5094997
:104C00004FF48072C868002100F022F805494FF483
:104C100000628868002100F01BF801200149087437
:104C200000BD0000B40000200022002106E007487B
:104C3000C06830F8110000B1521C491C8029F6D31D
:104C400064205043C0F3C71070470000B400002038
:104C500030B5034601E003F8011B141EA2F1010266
:104C6000F9D130BD10B50246012000E050430B1EC3
:104C7000A1F10104E1B2F9D110BD000009E005483D
:104C80000078012802D10348FFF71CFF6420FFF7DA
:104C9000B7FBF4E7480100202DE9F04105460E4638
:104CA0002648076826480068001D01F0B3FB50B98C
:104CB0002348006890F82C10012088402149096899
:104CC000814320480160681CD8B9D6B11E494868A4
:104CD0001B49096888601A4982680968CA601849CE
:104CE0000968091D8268516015490968091D8160BC
:104CF000154A134909684A6111460968491C11603F
:104D00001AE07C190E4800684460BC4207D20C4887
:104D10000168091D0D48006801F0A0FB0CE008487F
:104D20000168091D0A48006801F098FB09480068FD
:104D3000844201D207480460BDE8F081DC00002015
:104D4000C8000020E0000020B8120020D0000020A1
:104D5000CC000020F800002010B5044601F0A4FBB0
:104D600031480068401C304908603048006840B94C
:104D70002E4804600846006801280DD100F052FA60
:104D80000AE02B48006838B928480068C06AE16A20
:104D9000884201D82548046026480068401C2549FF
:104DA000086008460068606494F82C100120884070
:104DB00021490968084320490860E16A01EB810143
:104DC0001E4A02EB81014868A0608268E260211DF2
:104DD000826851608160E16A01EB8101174A02EB50
:104DE00081026261E16A01EB8101144A52F82110EB
:104DF000491CE26A02EB8202104B43F8221001F0D8
:104E000097FB0B48006868B108480068C06AE16A0F
:104E1000884207D24FF0805009490860BFF34F8F96
:104E2000BFF36F8F10BD0000D8000020C800002025
:104E3000E4000020F4000020E0000020E80F002043
:104E400004ED00E010B501F02FFB10480068D0B968
:104E50000F4801F0F3FA0F4801F0F0FA0C480E4940
:104E600008600C480D49086000221021052002F05E
:104E700011F9064908600846006820B108A10348F6
:104E8000006801F055FC01F053FB10BD100100203B
:104E9000CC120020E0120020080100200C010020AC
:104EA000546D72510000000010B516E001F0FCFADC
:104EB0000C48C068C468201D01F0ACFA0A480068BC
:104EC000401E0949086009480068401E07490860FB
:104ED00001F02EFB204600F05FF80448006800282F
:104EE000E4D110BDA4120020D8000020D40000207E
:104EF00070B504460D46206C70B1216CE068014429
:104F0000E160D4E90210884201D32168E1602846BB
:104F1000226CE168FBF783FB70BD2DE9F04104468C
:104F20000F4615464FF00008A66B206C48B9206864
:104F300000282CD1A06802F083FE80460020A060EB
:104F400025E07DB93946226C6068FBF768FB216C6F
:104F5000606808446060D4E90101884217D3206882
:104F6000606014E03946226CE068FBF758FB216C66
:104F7000E068411AE1602168E068884203D2216C50
:104F8000A068411AE160022D01D106B1761E701CA5
:104F9000A0634046BDE8F08110B50446206B01F0E7
:104FA000FFFA204601F0FCFA10BD01464A6A22B120
:104FB0000A6B1268C2F1200000E000207047000078
:104FC0000146084A126812680AB9012200E000226C
:104FD0000A600A6822B9034A1268D268106800E0C1
:104FE000002070470801002030B54FF45053174897
:104FF00000F007042CB1C01D20F00700134C041B67
:105000001B1B0246124C22600024114D6C60D0180C
:10501000083820F007000F4C206000240D4D2D684B
:105020006C600C4D2D682C601146441A4C60094C84
:1050300024680C60084D4C682C60084D4C682C604E
:105040004FF00044064D2C6030BD0000F4120020EB
:105050001C010020240100202C0100202801002038
:105060003801002000BFFFF71FFF06480068012835
:10507000F9D94FF0805004490860BFF34F8FBFF358
:105080006F8FF0E7E80F002004ED00E02DE9F0411C
:1050900006460D4617469846069C0DB9246000E06A
:1050A0002760E66325640121204602F033F884F886
:1050B00050800020A064BDE8F08100002DE9F05F81
:1050C00082460F4690469B460A9E0C9C4FEA8801FA
:1050D000A522206BFBF7E8FAA8F10100216B01EB98
:1050E000800929F0070909F0070008B9012000E04C
:1050F000002028B940F25F3223A128A0FBF73AF93B
:1051000087B1002507E0795D04F134004155785DF1
:1051100000B902E06D1C102DF5D300BF0021432023
:10512000015502E0002084F83400202E01D2012035
:1051300000E0002028B940F2963213A117A0FBF737
:1051400019F9202E00D31F26E662E66400202065B0
:10515000201D01F080F904F1180001F07CF92461B0
:10516000C6F12000A06164620020606584F85800E8
:105170005A465146484600F067FC20600B9808B13B
:105180000B980460BDE8F09F2E2E5C467265655258
:10519000544F535C7461736B732E63004572726F6E
:1051A000723A25732C25640D0A0000002DE9F047A2
:1051B00006460D4617469846DDE908940DB10120D4
:1051C00000E0002028B940F26B120CA111A0FBF7FF
:1051D000D1F8FFF737FE2660A561C4F81C80C4F83B
:1051E0002090201D01F037F92FB194F8280040F0ED
:1051F000040084F82800BDE8F08700002E2E5C46ED
:1052000072656552544F535C74696D6572732E6399
:10521000000000004572726F723A25732C25640DF0
:105220000A00000010B5002407E004EB84010F4AD7
:1052300002EB810001F002F9641C202CF5D30C482C
:1052400001F0FCF80B4801F0F9F80B4801F0F6F812
:105250000A4801F0F3F80A4801F0F0F80448094957
:10526000086004480849086010BD0000E80F0020ED
:10527000681200207C12002090120020A41200204E
:10528000B8120020CC000020D000002010B501464C
:10529000164800E0006803688B42FBD3024643686F
:1052A00013448B4204D143684C6823444360014655
:1052B0000A464B6813440468A34211D10C4C03689E
:1052C0002468A34208D04B680468646823444B6098
:1052D00003681B680B6005E0054B1B680B6001E071
:1052E00003680B60884200D0016010BD1C010020E3
:1052F000240100202DE9F04104460D4616461F46C4
:105300004FF0000865602461B5420CD8F01BA1691C
:10531000884202D34FF0010811E0211D09480068BE
:1053200001F09CF80BE0BE4204D2BD4202D34FF024
:10533000010804E0211D0448006801F08FF8404690
:10534000BDE8F0810C0100200801002070B5054681
:1053500001F0AAF8A86B08B9012400E0002401F0CC
:10536000E7F8204670BD70B5054601F09DF8A86BC2
:10537000E96B884201D1012400E0002401F0D8F853
:10538000204670BDF1B50098846C00262CB940F61B
:10539000D73220A124A0FAF7EDFFA06BE16B884281
:1053A00001D2012000E0002028B940F6D83219A12E
:1053B0001DA0FAF7DFFFA06BE16B884227D294F9BA
:1053C0004550002269462046FFF7A7FD0646681CA7
:1053D00060B9606A08B9012000E00020B0B904F1AA
:1053E000240002F023FD88B101260FE07F2D01D0BB
:1053F000012000E0002028B940F6F83205A10AA0FB
:10540000FAF7B8FF681C40B284F8450000BF304688
:10541000F8BD00002E2E5C4672656552544F535CF9
:1054200071756575652E63004572726F723A2573EA
:105430002C25640D0A00000070B505460E460E4886
:105440000068C068C468201D00F0E4FF94F82800DC
:1054500000F0040028B132462946204600F0F8F852
:1054600005E094F8280000F0FE0084F828002046AB
:10547000216A884770BD00000801002070B586B021
:105480008AE0029800280CDA03AE2EB940F2063208
:1054900047A14DA0FAF76EFFD6E90020B16890470A
:1054A00000BF0298002877DB049C606908B90120DE
:1054B00000E0002010B9201D00F0ACFF01A800F0B2
:1054C000F3F8054602980A2864D2DFE800F0630585
:1054D000072E365306082F3700BF00BF00BF94F8D1
:1054E000280040F0010084F828000398A269811880
:1054F00003462A462046FFF7FDFEA8B194F828008F
:1055000000F0040038B10398A26981182A462046A9
:1055100000F09EF805E094F8280000F0FE0084F802
:1055200028002046216A884735E000BF94F828000B
:1055300000F0FE0084F828002DE000BF94F8280059
:1055400040F0010084F828000398A061A06908B128
:10555000012000E0002028B940F2593214A11AA01D
:10556000FAF708FFA06941192B462A462046FFF7A3
:10557000C1FE10E094F8280000F0020018B920469F
:1055800001F00EF805E094F8280000F0FE0084F821
:10559000280000E000BF00BF002202A90E480068FA
:1055A00002F03CF800287FF46CAF06B070BD00003C
:1055B0002E2E5C4672656552544F535C74696D655E
:1055C00072732E63000000004572726F723A257389
:1055D0002C25640D0A00000010010020F8B50546D6
:1055E0000C4601F033FC684600F05EF80646009871
:1055F00020BB44B9B54206D802F0B6FC3146284675
:10560000FFF71AFF1CE03CB10E480068006808B9BB
:10561000012000E000200446A91B22460A48006839
:1056200001F0C4F802F0A0FC50B94FF080500749D7
:105630000860BFF34F8FBFF36F8F01E002F094FC5F
:10564000F8BD00000C0100201001002004ED00E076
:1056500070B504460D46164604E0A0690544204690
:10566000216A8847A06941192B4632462046FFF738
:1056700041FE0028F1D170BD09480068006808B9F2
:10568000012000E0002020B14FF0FF300549086004
:1056900005E003480068C068006802490860704778
:1056A000CC000020F800002070B5044602F0D8F9C4
:1056B000054607480068854204D200F00BF8012037
:1056C000206001E00020206001480560284670BD90
:1056D0001801002070B508E00D480068C068046833
:1056E0004FF0FF312046FFF7A7FE09480068006829
:1056F00008B9012000E000200028EDD0044805682A
:1057000004480068024908600248056070BD000056
:10571000080100200C0100200B480068401C08B95B
:10572000012000E0002020B9CE2208A112A0FAF743
:1057300021FE00BF502080F31188BFF34F8FBFF3CD
:105740006F8F00BF00BFFEE73C0100202E2E5C469D
:1057500072656552544F535C706F727461626C6510
:105760005C525644535C41524D5F434D335C706F05
:1057700072742E63000000004572726F723A2573D6
:105780002C25640D0A00000070B5054600262C4645
:105790002DB940F226720EA112A0FAF7EBFD1549C1
:1057A0006069884201D1012000E0002070B11249F7
:1057B000A06A884201D1012000E0002030B9A06A2F
:1057C00008B9012000E0002000B10126304670BD7C
:1057D0002E2E5C4672656552544F535C7461736B38
:1057E000732E63004572726F723A25732C25640D17
:1057F0000A000000B81200209012002008B500BF77
:105800006846FFF7DDFB044620460099FFF7E6FEF9
:10581000FFF734FEF4E770B5044600F045FE94F956
:10582000455019E0A06C30B12046FFF7ABFD88B1C0
:1058300001F0B2F80EE0606A08B9012000E0002033
:1058400038B904F1240002F0F1FA18B101F0A4F81B
:1058500000E003E0681E45B2002DE3DC00BFFF203E
:1058600084F8450000F064FE00F01EFE94F94450F8
:1058700010E0206908B9012000E0002048B904F1D7
:10588000100002F0D3FA08B101F086F8681E45B2A4
:1058900000E001E0002DECDC00BFFF2084F84400B4
:1058A00000F046FE70BD00002DE9F04104464FF0C7
:1058B000000801F0CBFA4848006808B9FFF794FBEC
:1058C000464800682040002873D114B304F1080052
:1058D000A0421ED9083404F00700D8B104F0070034
:1058E000C0F108002044A04211D904F00700C0F123
:1058F0000800044404F0070008B9012000E000207B
:1059000040B99C2236A140A0FAF734FD02E0002401
:1059100000E00024002C4CD03F480068844248D866
:105920003E4E3046056801E02E462D686868A0426C
:1059300002D228680028F7D127480068854238D06D
:10594000306800F10808286830606868001B10287B
:1059500013D92F1907F0070008B9012000E0002033
:1059600020B9CF221EA128A0FAF704FD6868001B09
:1059700078606C603846FFF789FC274968680968D9
:10598000081A2549086008460068254909688842C0
:1059900003D22148006822490860104968680968F4
:1059A00008436860002028601E480068401C1D49AC
:1059B000086002F0D9FA08F0070008B9012000E0F9
:1059C000002028B94FF4887205A10FA0FAF7D2FC85
:1059D0004046BDE8F081000024010020380100208D
:1059E0002E2E5C4672656552544F535C706F727414
:1059F00061626C655C4D656D4D616E675C6865618B
:105A0000705F342E630000004572726F723A257326
:105A10002C25640D0A000000280100201C01002034
:105A20002C010020300100200648006830B10549F3
:105A3000096801F15000096D491C016001480068C6
:105A400070470000C8000020001F4FF08073036003
:105A5000001F21F001030360001F034B0360143893
:105A60000260203870470000195700080160704735
:105A70002DE9F84F0024A1461048B0F9000003F0CA
:105A800091FF4FF08141009003F0AEFE83460C4938
:105A900003F0AAFE824603F00DFE07460022094BE2
:105AA00003F00AFD054603F069FB0446214606485B
:105AB00000F03AF881464846BDE8F88F50000020D3
:105AC0000000C3430070A740580100202DE9F84FA3
:105AD0000024A1461048B0F9000003F063FF4FF026
